:100000000C943E000C9453000C9453000C94530039
:100010000C9453000C9453000C9453000C94530014
:100020000C9453000C9453000C9453000C94530004
:100030000C9453000C9453000C9453000C945300F4
:100040000C9453000C9453000C9453000C945300E4
:100050000C9453000C9453000C9453000C945300D4
:100060000C9453000C9453000C9453000C945300C4
:100070000C9453000C9453000C94530011241FBE95
:10008000CFEFD8E0DEBFCDBF11E0A0E0B1E0E4EEFD
:10009000F0E002C005900D92A031B107D9F70E949F
:1000A00055000C9470000C9400008FEF81B917B8C4
:1000B0008FE484B981E08AB915B81BB8E6B1EF7056
:1000C000F0E0E050FF4F808182B986B185B99BB1E5
:1000D00081E089278BB995B180E4892785B9EECF76
:0400E000F894FFCFC2
:1000E4003F065B4F666D7D077F6F777C395E797164
:00000001FF
