:100000000C943E000C9448000C9448000C9448005A
:100010000C9448000C9448000C9448000C94480040
:100020000C9448000C9448000C9448000C94480030
:100030000C9448000C9448000C9448000C94480020
:100040000C9448000C9448000C9448000C94480010
:100050000C9455000C9448000C9448000C944800F3
:100060000C9448000C9448000C9448000C944800F0
:100070000C9448000C9448000C94480011241FBEB6
:10008000CFEFD8E0DEBFCDBF0E944A000C948A00BB
:100090000C94000089E190E09093C5008093C40027
:1000A00088E98093C1007894FFCF1F920F920FB61A
:1000B0000F9211242F933F934F935F936F937F93EE
:1000C0008F939F93AF93BF93CF93DF93EF93FF9360
:1000D000C6ECD0E0888190E00E9482008883FF9186
:1000E000EF91DF91CF91BF91AF919F918F917F91D0
:1000F0006F915F914F913F912F910F900FBE0F9095
:100100001F9018959111089581568A5108F48052D4
:0801100085580895F894FFCF13
:00000001FF
