S01500006469616D6F6E646D696E6572732E73726563A5
S11300000C9482000C949F000C949F000C949F000D
S11300100C949F000C94D9000C949F000C949F00A6
S11300200C949F000C949F000C949F000C949F00D0
S11300300C949F000C949F000C949F000C949F00C0
S11300400C94890C0C949F000C949F000C949F00BA
S11300500C94C20B0C94800B0C949F000C949F0086
S11300600C949F000C949F000C949F000C949F0090
S11300700C949F000C949F000C949F005072657325
S113008073206120627574746F6E20746F207374B2
S113009061727420616761696E0047414D45204F6C
S11300A0564552004368656174733A206F66660072
S11300B04469616D6F6E647320436F6C6C65637427
S11300C065643A2030004353534532303130207058
S11300D0726F6A656374206279204875676F204285
S11300E07572746F6E004469616D6F6E64204D6942
S11300F06E657273001B5B324A001B5B25643B25F3
S11301006448000011241FBECFEFD8E0DEBFCDBF8E
S113011012E0A0E0B1E0E4E9F4E202C005900D923F
S1130120AC35B107D9F724E0ACE5B2E001C01D92CB
S1130130A139B207E1F70E94BC0A0C9448120C944E
S11301400000E8E6F0E08081826080838BB3826007
S11301508BBBECE6F0E080818F60808310925C02C0
S1130160089580915C02181614F580915D026FB7B2
S1130170F89491E009C0F901E35AFD4F4081F90177
S1130180E45AFD4F40839F5F292F30E040915C0289
S1130190042E000C550B241735076CF390915C0268
S11301A0915090935C0266231CF4789408958FEF29
S11301B008951F920F920FB60F9211242F933F931D
S11301C04F938F939F93EF93FF9343B14F7080E0CE
S11301D026C090915C0294300CF5242F30E0082E58
S11301E002C0359527950A94E2F720FF17C02091A5
S11301F0610230E0082E02C0359527950A94E2F793
S113020020FD0CC0E0915C0291E09E0F90935C0293
S11302100E2E000CFF0BE35AFD4F80838F5F84305A
S1130220C0F240936102FF91EF919F918F914F91A2
S11302303F912F910F900FBE0F901F9018950E9421
S1130240530708951F93CF93DF93CDB7DEB7289755
S11302500FB6F894DEBF0FBECDBF0E94530710E067
S113026029C0E12FF0E0E85EFE4F908190FF02C0CC
S11302702FE001C020EF87E013C0992344F4E1E0AC
S1130280F0E0EC0FFD1FE80FF11D208307C0E1E053
S1130290F0E0EC0FFD1FE80FF11D1082990F815063
S11302A08111EBCF1982BE016F5F7F4F812F0E94B6
S11302B036071F5F1031A8F228960FB6F894DEBFF8
S11302C00FBECDBFDF91CF911F910895803118F5F6
S11302D0683008F5413081F0423081F09DEF940F91
S11302E0923070F0473071F0453071F0463071F063
S11302F0483071F44CE30DC04FE00BC041E009C03D
S11303004FED07C043E105C040EF03C045E301C022
S113031040E00E94170708951092720310926B0236
S113032081E080937603109273038093700310929C
S11303306A02109274031092EE02109269021092F3
S1130340EF021092710360E070E03AC080916302A2
S1130350482F417050E0E7E0F0E0E21BF30BCA01E4
S1130360880F991F880F991F880F991FE80FF91F8D
S1130370E295F295F07FFE27E07FFE27E55AFE4FD7
S1130380E60FF71FA081CB01880F991F880F991FD3
S1130390880F991FFC01E359FD4FE20FF31FA0835F
S11303A080519D4FFC01E20FF31F10822F5F3F4FDE
S11303B002C020E030E02830310544F26F5F7F4F07
S11303C060317105B4F30895803120F4683020F071
S11303D080E0089580E0089581E008950F931F93CD
S11303E0CF93DF93C82FD62F8031F9F46430E9F42A
S11303F010C06C2F802F0E94EE01853051F12196A0
S113040002C0C0E0D0E0C830D1059CF30F5F1F4F9D
S113041002C000E010E0003111059CF380916302FA
S11304208F5F8093630289E017C06D2F8C2F0E9429
S1130430E401882381F0EC2FF0E0EE0FFF1FEE0FB4
S1130440FF1FEE0FFF1FE359FD4FED0FF11D8081DC
S113045003C084E001C084E0DF91CF911F910F912C
S11304600895CF93DF93D0917303C09176036D2FDA
S11304708C2F0E94E4018823D9F080917003882393
S113048061F06D2F8C2F0E94EE01482F6091730351
S1130490809176030E94660105C042E06D2F8C2F87
S11304A00E9466019091700381E0891B8093700320
S11304B0DF91CF91089580916902813021F09BB141
S11304C088E089278BB908958091EE020895809180
S11304D0EF0208955F926F927F928F929F92AF92F4
S11304E0BF92CF92DF92EF92FF920F931F93CF931D
S11304F0DF93782E662EC0917203D0E06E0182E005
S1130500C81AD108229600916B0210E0580182E0CB
S1130510A81AB1080E5F1F4F872C912CE62EF12CE0
S1130520F401EE0FFF1FEE0FFF1FEE0FFF1FE05150
S1130530FD4FEE0DFF1D81E08083872D0E94EE01AB
S1130540582E809171038130F1F48C149D0404F1D0
S1130550C815D905ECF0EA14FB04D4F00E151F05F8
S1130560BCF0C814D90419F0C815D90531F4AE1477
S1130570BF0471F00E151F0559F0452D662D872D0A
S11305800E94660105C0452D662D872D0E946601D7
S1130590552049F185E058122EC028C0F801EE0F0D
S11305A0FF1FE55BFE4FC081C70DD181D60D6D2FB6
S11305B08C2F0E94E401882399F0EC2FF0E0EE0FD9
S11305C0FF1FEE0FFF1FEE0FFF1FE051FD4FED0F5A
S11305D0F11D8081811104C06D2F8C2F0E946A024D
S11305E00F5F1F4F05C000E010E002C000E010E004
S11305F0083011059CF2DF91CF911F910F91FF906C
S1130600EF90DF90CF90BF90AF909F908F907F90AE
S11306106F905F9008950F931F93CF93DF930E9481
S11306201F0100E010E00EC046E06C2F802F0E94F6
S11306306601219602C0C0E0D0E0C830D105A4F321
S11306400F5F1F4F00311105B4F360916B0280916D
S113065072030E946A0241E060916B02809172030E
S11306600E94660142E060917303809176030E94C8
S11306706601DF91CF911F910F9108950E948C0123
S11306800E940B03089560917303809176030E9486
S1130690EE01833011F0873039F580916A028823A6
S11306A011F090E001C097E080917603E82FF0E02C
S11306B060917303EE0FFF1FEE0FFF1FEE0FFF1F7E
S11306C0E359FD4FE60FF11D90830E94EE01482F80
S11306D060917303809176030E94660160917303B5
S11306E0809176030E946A02089590916A0281E0E3
S11306F0891B80936A0263E070E085E390E00E94C6
S1130700470C80916A02813049F488E291E09F931A
S11307108F930E94440F0F900F9008C08CE291E0D9
S11307209F938F930E94440F0F900F9061E070E0AD
S113073081E090E00E94470C08959091690281E065
S113074089278093690264E070E08DE290E00E9462
S1130750470C80916902813049F480E391E09F93D2
S11307608F930E94440F0F900F9008C087E391E08D
S11307709F938F930E94440F0F900F9061E070E05D
S113078081E090E00E94470C0895809169020895E9
S11307906F927F928F929F92AF92BF92CF92DF928D
S11307A0EF92FF920F931F93CF93DF93E090720326
S11307B0F12C670182E0C81AD10882E0E80EF11C2E
S11307C000916B0210E0580182E0A81AB1080E5F94
S11307D01F4FE60134C0682C7C2E682D8C2F0E949C
S11307E0E401882319F1CC15DD0519F0CE15DF05D8
S11307F031F48A149B04D1F080169106B9F0FE01FD
S1130800EE0FFF1FEE0FFF1FEE0FFF1FE051FD4F16
S1130810E80DF91D8081813049F4662D872D0E94F1
S1130820EE01482F662D872D0E9466018FEF881AEE
S1130830980A01C04501081519056CF62196EC16B5
S1130840FD06C4F7DF91CF911F910F91FF90EF90B8
S1130850DF90CF90BF90AF909F908F907F906F90DC
S11308600895CF93DF939091710381E0892780935A
S11308707103813071F0D0E030C046E06C2F8D2FD1
S11308800E946601CF5F01C0C0E0C830B0F3DF5FF3
S113089001C0D0E0D031C0F30E94C80320C0ED2FC6
S11308A0F0E0EE0FFF1FEE0FFF1FEE0FFF1FE051F2
S11308B0FD4FEC0FF11D8081813049F46C2F8D2F99
S11308C00E94EE01482F6C2F8D2F0E946601CF5F8E
S11308D001C0C0E0C83018F3DF5FD031D0F341E08D
S11308E060916B02809172030E94660142E0609104
S11308F07303809176030E946601DF91CF9108957E
S11309006F927F928F929F92AF92BF92CF92DF921B
S1130910EF92FF920F931F93CF93DF938091710314
S1130920813009F04AC0E0907203F12C670183E042
S1130930C81AD10883E0E80EF11C00916B0210E0A4
S1130940580183E0A81AB1080D5F1F4FE60130C0BB
S1130950682C7C2E682D8C2F0E94E4018823F9F0EA
S1130960CC15DD0519F0CE15DF0531F48A149B048E
S1130970B1F08016910699F0FE01EE0FFF1FEE0F05
S1130980FF1FEE0FFF1FE051FD4FE80DF91D8081A1
S1130990813029F446E0662D872D0E9466018FEF91
S11309A0881A980A01C04501081519058CF6219684
S11309B0EC16FD06C4F70E94C803DF91CF911F9186
S11309C00F91FF90EF90DF90CF90BF90AF909F90EA
S11309D08F907F906F900895FF920F931F93CF9302
S11309E0DF93D82FC62F60916B02809172030E940F
S11309F0EE01482F60916B02809172030E946601A0
S1130A0010917203FD2EF10E00916B020C0F602FFA
S1130A108F2D0E94EE01182F893011F40E94BE0719
S1130A20112329F0123019F0153009F044C0F09266
S1130A30720300936B021530B9F5EF2DF0E0EE0F61
S1130A40FF1FEE0FFF1FEE0FFF1FE359FD4FE00FD7
S1130A50F11D1082602F8F2D0E94EE01482F6091AE
S1130A607303809176030E946601809174038F5F03
S1130A708093740362E070E081E490E00E94470C8C
S1130A80809174031F928F938EE391E09F938F93D1
S1130A900E94440F61E070E081E090E00E94470C06
S1130AA00F900F900F900F908091EE02833618F400
S1130AB08F5F8093EE020E948004609173038091A3
S1130AC076030E94EE01482F6091730380917603B0
S1130AD00E94660141E060916B02809172030E9462
S1130AE0660180917203D80FD093760380916B02D4
S1130AF0C80FC09373030E943102DF91CF911F91FD
S1130B000F91FF900895FF920F931F93CF93DF935C
S1130B1000E010E00F2EF3E6FF2EF02D2AC06C2F1C
S1130B20802F0E94EE018530D9F48091720390E009
S1130B30801B910B9C0122F422273327281B390B9D
S1130B40422F80916B0290E08C1B9D0B9C0122F440
S1130B5022273327281B390B240F2F1508F4F22ED4
S1130B60219602C0C0E0D0E0C830D105C4F20F5FC6
S1130B701F4F00311105B4F38F2DDF91CF911F91D9
S1130B800F91FF900895E0917203E09375038091B3
S1130B906B028093ED02F0E0EE0FFF1FEE0FFF1FDC
S1130BA0EE0FFF1FE359FD4FE80FF11D88E080832E
S1130BB081E08093620208951F93CF93DF93CDB7B2
S1130BC0DEB72A970FB6F894DEBF0FBECDBF8AE01A
S1130BD0EEE0F1E0DE01119601900D928A95E1F7C5
S1130BE010E047C0E12FF0E0EE0FFF1F81E090E03E
S1130BF08C0F9D1FE80FF91F908180917503890F59
S1130C0061819091ED02690F282F30E0462F50E06A
S1130C10F901EE0FFF1FEE0FFF1FEE0FFF1FE35949
S1130C20FD4FE40FF51F90817091720387130CC080
S1130C3070916B02671308C081E08093EF020E94F9
S1130C408F0A0E94BE0714C0933021F0983011F02F
S1130C50973071F4220F331F220F331F220F331FDB
S1130C6023593D4FF901E40FF51F10820E946A02D7
S1130C701F5F153008F4B6CF6091ED0280917503C3
S1130C800E94EE01482F6091ED02809175030E944D
S1130C9066012A960FB6F894DEBF0FBECDBFDF9172
S1130CA0CF911F91089580917503813121F4909122
S1130CB0ED02913179F020916C0291E092279093AA
S1130CC06C02911102C040E001C048E06091ED0265
S1130CD00E9466010895FF920F931F93CF93DF93B1
S1130CE0CDB7DEB72A970FB6F894DEBF0FBECDBFDF
S1130CF08AE0EEE0F1E0DE01119601900D928A9512
S1130D00E1F7809162028823F9F010E03DC0EF2DF5
S1130D10F0E0EE0FFF1F81E090E08C0F9D1FE80FC5
S1130D20F91F108180917503180F01818091ED02E4
S1130D30080F602F812F0E94EE01482F602F812F12
S1130D400E946601F39401C0F12C94E09F15F8F61B
S1130D5081E1809375038093ED021AC0E12FF0E0E6
S1130D60EE0FFF1F81E090E08C0F9D1FE80FF91F2D
S1130D7020818091750361819091ED02690F48E0B3
S1130D80820F0E9466011F5F153040F310926202C9
S1130D902A960FB6F894DEBF0FBECDBFDF91CF9178
S1130DA01F910F91FF90089580917503813131F463
S1130DB08091ED02813111F48BB18BB930917203C2
S1130DC020917503832F90E0821B9109019603976C
S1130DD030F490916B028091ED02981761F0321318
S1130DE00EC080916B0290E02091ED02821B91096C
S1130DF00196039720F48BB180618BB908958BB170
S1130E008BB90895962F990F990F9BB9613011F4FE
S1130E10882339F0E82FF0E0EF5BFE4F808188B93A
S1130E20089518B8089580E80E94150C08951F933A
S1130E30CF93DF938031B0F46830A0F4142FC62F21
S1130E40D82F81E00E94410C6C2F677080E1689F6D
S1130E50900111248D2F8F70822B0E94410C812FC1
S1130E600E94410CDF91CF911F9108950F931F931E
S1130E70CF938031A0F48B01C82F83E00E94410CF2
S1130E808C2F8F700E94410CC0E007C0F801EC0F5A
S1130E90F11D80810E94410CCF5FC830B8F3CF911F
S1130EA01F910F9108958FE00E94410C08950E94B4
S1130EB013070E94A10040E060E07BE480E090E042
S1130EC00E942D0B0E94610C78948AB188608AB9C3
S1130ED08AB180618AB987B18FEF87B98AB184609A
S1130EE08AB987EE93E0909389008093880080E428
S1130EF0809380009AE09093810080937C0086E840
S1130F0080937A0008950E94580C6AE070E08AE0A9
S1130F1090E00E94470C86EE90E09F938F930E948E
S1130F205A0F6CE070E08AE090E00E94470C86EC77
S1130F3090E09F938F930E945A0F61E070E081E0EC
S1130F4090E00E94470C0E9422010F900F900F9096
S1130F500F900E94740B882339F080918B04909138
S1130F608C040E94060F01C08FEF833731F0833564
S1130F7021F00E94B1008F3F61F308950E94580C44
S1130F8062E070E08DE290E00E94470C80EB90E01C
S1130F909F938F930E945A0F63E070E08DE290E07C
S1130FA00E94470C84EA90E09F938F930E945A0F0B
S1130FB061E070E081E090E00E94470C0E943E03F3
S1130FC00E94B1000E947B0B0F900F900F900F9026
S1130FD008953F924F925F926F927F928F929F9269
S1130FE0AF92BF92CF92DF92EF92FF920F931F9333
S1130FF0CF93DF93CDB7DEB72E970FB6F894DEBF4D
S11310000FBECDBF0E94790C4B015C010E94790C8C
S113101069877A878B879C870E94790C6D837E838E
S11310208F8398871E861982312C412C512C3201D2
S113103080E08D8757C20E94B100811105C060E035
S113104081E00E94EC0470C0813029F46FEF80E0ED
S11310500E94EC0469C0823029F461E080E00E94BF
S1131060EC0462C0833029F460E08FEF0E94EC044A
S11310705BC00E94740B882309F456C080918B04D2
S113108090918C040E94060F182F803711F0803540
S113109011F40E949D030E94C503811145C01436BA
S11310A011F0143429F460E081E00E94EC043CC0A7
S11310B0133711F0133529F46FEF80E00E94EC042C
S11310C033C0173711F0173529F461E080E00E942E
S11310D0EC042AC0113611F0113429F460E08FEFCA
S11310E00E94EC0421C0153611F0153419F40E9445
S11310F043031AC0133611F0133419F40E94750314
S113110013C0103259F431100FC00E94C3050E945D
S1131110790C2B013C013324339406C0163611F0AC
S1131120163411F40E9431040E946402282FAD8504
S1131130A11111C09DEC899F912D1124892F8695B1
S113114086958695982F990F892F880F880F890F78
S1131150281B822F14C09DEC899F212D11242695D4
S113116026952695299F812D112486958695869509
S1131170880F982F990F990F890F281B822F6D853F
S11311800E94020781E0BD858B1B8D87B19BFECF3A
S113119086B3827086BB0E94C503813009F4A2C164
S11311A00E94790C6B017C01D501C4018C509E4FC7
S11311B0AF4FBF4FC816D906EA06FB0620F00E94BF
S11311C03102460157010E948305843049F083307F
S11311D051F0823059F0813061F000E010E00BC032
S11311E00CED15E008C008EE13E005C004EF11E0B3
S11311F002C00AEF10E00E94790C6B017C0101151A
S11312001105B9F0012E000C220B330B89859A8548
S1131210AB85BC85080F191F2A1F3B1FC016D106BA
S1131220E206F30630F00E945B02C986DA86EB869A
S1131230FC860E94790C6B017C0191E03912B7C0E5
S1131240D301C2018053984FAF4FBF4FC816D90680
S1131250EA06FB0648F00E94DC050E946B060E9429
S1131260D4066894332431F8D301C20186509F4FC9
S1131270AF4FBF4FC816D906EA06FB0619F40E9401
S1131280530693C0D301C2018C509E4FAF4FBF4F42
S1131290C816D906EA06FB0619F40E94530685C04F
S11312A0D301C20182519D4FAF4FBF4FC816D9061B
S11312B0EA06FB0619F40E94530677C0D301C20163
S11312C088519C4FAF4FBF4FC816D906EA06FB069C
S11312D019F40E94530669C0D301C2018E519B4F79
S11312E0AF4FBF4FC816D906EA06FB0619F40E9491
S11312F053065BC0D301C20184529A4FAF4FBF4F14
S1131300C816D906EA06FB0619F40E9453064DC016
S1131310D301C201805C994FAF4FBF4FC816D906A5
S1131320EA06FB0619F40E9453063FC0D301C2012A
S11313308C55994FAF4FBF4FC816D906EA06FB0626
S113134019F40E94530631C0D301C201885F984F3B
S1131350AF4FBF4FC816D906EA06FB0619F40E9420
S1131360530623C0C816D906EA06FB0619F40E94E0
S113137053061BC0D301C2018459984FAF4FBF4FCE
S1131380C816D906EA06FB0619F40E9453060DC0D6
S1131390D301C2018454984FAF4FBF4FC816D9062A
S11313A0EA06FB0611F40E9453060E94D406A2E04A
S11313B03A1213C00E94790C930182010C5C174FFE
S11313C02F4F3F4F601771078207930730F00E9439
S11313D06B06312C412C512C3201BE85B11106C053
S11313E0ECE7F0E080818E7F808305C0ECE7F0E0DD
S11313F0808181608083EAE7F0E08081806480837B
S113140080917A0086FDFCCF0091780010917900DC
S11314100E94790C0E94A10D69837A838B839C833B
S113142084EF91E0801B910BBC0122F4662777279F
S1131430681B790B072E000C880B990B0E94A30DD7
S11314409B01AC0160E070E080E89FE30E942F0DF7
S113145020E030E543EC56E40E94340E6B017C013D
S11314606D817E818F8198850E94A10DA7019601CF
S11314700E94C30C9B01AC0169817A818B819C81A0
S11314800E942F0E882354F18E85811111C00D3BCB
S113149092E0190728F060E081E00E94EC0418C093
S11314A00C321140A8F460E08FEF0E94EC0410C0ED
S11314B00D3BB2E01B0728F061E080E00E94EC04E1
S11314C007C00C32114020F46FEF80E00E94EC045E
S11314D00E94790C6D837E838F83988781E09E853B
S11314E098279E870E946702882309F4A4CD2E962C
S11314F00FB6F894DEBF0FBECDBFDF91CF911F9121
S11315000F91FF90EF90DF90CF90BF90AF909F909E
S11315108F907F906F905F904F903F9008956EE012
S113152070E08AE090E00E94470C8AE990E09F9383
S11315308F930E945A0F6FE070E08AE090E00E945F
S1131540470C8CE790E09F938F930E945A0F0F9063
S11315500F900F900F900BC00E94740B882339F0EA
S113156080918B0490918C040E94060F08950E9430
S1131570B1008F3F89F308950E9457070E948307A3
S11315800E94BE070E94E9070E948F0AF9CFCF93F9
S1131590C82F8A3019F48DE00E94C70A9FB790784B
S11315A002C0992329F1809178038F3FD1F3F894F5
S11315B0E091770381E08E0F80937703F0E0E758A2
S11315C0FC4FC083809178038F5F80937803809170
S11315D077038F3F11F410927703E1ECF0E0808100
S11315E080628083992339F0789480E090E005C08C
S11315F081E090E002C080E090E0CF910895809176
S11316008A048823E1F32FB72078F8948091780432
S113161030918A0490E0831B91095AF4E091780494
S113162080918A04F0E0E81BF109E757FB4F8081C1
S11316300AC0E091780480918A04F0E0E81BF10983
S1131640E758FB4F808190918A04915090938A04CB
S1131650222309F0789490E0089510927703109271
S113166078031092780410928A04109289044093AB
S11316706402DC01CB01880F991FAA1FBB1F880FCE
S1131680991FAA1FBB1F9C01AD01220F331F441FCA
S1131690551F60E072E18AE790E00E94C50EBA012E
S11316A0A9014F5F5F4F6F4F7F4FDB01CA011AF4EF
S11316B00196A11DB11DB595A7959795879501979D
S11316C09093C5008093C400E1ECF0E088E180834E
S11316D0808180688083EBE8F4E080E091E093838C
S11316E0828391838083089590918A0481E091118B
S11316F001C080E008951092780410928A0408953D
S11317001F920F920FB60F9211242F938F939F93D2
S1131710EF93FF9380917803882329F180917703D5
S11317202091780390E0821B91095AF4E0917703A9
S113173080917803F0E0E81BF109E858FB4F9081B1
S11317400AC0E091770380917803F0E0E81BF10987
S1131750E758FC4F908180917803815080937803FF
S11317609093C60005C0E1ECF0E080818F7D80831A
S1131770FF91EF919F918F912F910F900FBE0F903A
S11317801F9018951F920F920FB60F9211242F934A
S11317903F934F935F936F937F938F939F93AF93F5
S11317A0BF93CF93EF93FF93C091C60080916402DF
S11317B0882349F0809178038F3F29F060E070E03E
S11317C08C2F0E94C70A80918A04803120F081E026
S11317D08093890418C0CD3009F4CAE0E0917804FC
S11317E081E08E0F80937804F0E0E758FB4FC083CC
S11317F080918A048F5F80938A0480917804803179
S113180011F410927804FF91EF91CF91BF91AF91B1
S11318109F918F917F916F915F914F913F912F9104
S11318200F900FBE0F901F90189594B1906B94B9C0
S113183095B1906195B990E59CBD883021F08032D6
S113184011F0823019F491E09DBD01C01DBC8032BD
S113185069F028F4883071F0803161F00EC0803472
S113186029F0803851F48CB581608CBD8CB58260D0
S11318708CBD03C08CB581608CBD85B18F7E85B96C
S113188008958EBD0DB407FEFDCF8EB508959F93C8
S11318908F937F936F938AEF90E09F938F930E942F
S11318A05A0F0F900F900F900F900F900F90089574
S11318B085EF90E09F938F930E945A0F0F900F90A3
S11318C008951092650210926602109267021092B7
S11318D0680216BC8CE787BD82E084BD83E085BDC9
S11318E0EEE6F0E080818260808385B3827085BB00
S11318F008958FB7282F2078F8946091650270912D
S113190066028091670290916802222309F078941C
S113191008951F920F920FB60F9211242F933F93A5
S11319204F935F936F937F938F939F93AF93BF93E3
S1131930EF93FF930E94C503811113C08091650248
S113194090916602A0916702B09168020196A11D70
S1131950B11D8093650290936602A0936702B093D1
S11319606802FF91EF91BF91AF919F918F917F9109
S11319706F915F914F913F912F910F900FBE0F90F8
S11319801F9018955058BB27AA270E94DA0C0C9474
S1131990F50D0E94E70D38F00E94EE0D20F039F4A9
S11319A09F3F19F426F40C94E40D0EF4E095E7FB44
S11319B00C94DE0DE92F0E94060E58F3BA17620745
S11319C073078407950720F079F4A6F50C94280E84
S11319D00EF4E0950B2EBA2FA02D0B01B901900146
S11319E00C01CA01A0011124FF27591B99F0593F8A
S11319F050F4503E68F11A16F040A22F232F342FD2
S1131A004427585FF3CF469537952795A795F0401F
S1131A105395C9F77EF41F16BA0B620B730B840B34
S1131A20BAF09150A1F0FF0FBB1F661F771F881FEC
S1131A30C2F70EC0BA0F621F731F841F48F4879544
S1131A4077956795B795F7959E3F08F0B0CF939536
S1131A50880F08F09927EE0F9795879508950E94AF
S1131A60430D0C94F50D0E94EE0D58F00E94E70D05
S1131A7040F029F45F3F29F00C94DE0D51110C94D1
S1131A80290E0C94E40D0E94060E68F39923B1F319
S1131A90552391F3951B550BBB27AA276217730790
S1131AA0840738F09F5F5F4F220F331F441FAA1F24
S1131AB0A9F335D00E2E3AF0E0E832D091505040E0
S1131AC0E695001CCAF72BD0FE2F29D0660F771F8E
S1131AD0881FBB1F261737074807AB07B0E809F074
S1131AE0BB0B802DBF01FF2793585F4F3AF09E3FF9
S1131AF0510578F00C94DE0D0C94290E5F3FE4F34D
S1131B00983ED4F3869577956795B795F7959F5F3B
S1131B10C9F7880F911D9695879597F90895E1E087
S1131B20660F771F881FBB1F621773078407BA07E6
S1131B3020F0621B730B840BBA0BEE1F88F7E09541
S1131B400895E89409C097FB3EF4909580957095AC
S1131B5061957F4F8F4F9F4F9923A9F0F92F96E9F5
S1131B60BB279395F695879577956795B795F1116A
S1131B70F8CFFAF4BB0F11F460FF1BC06F5F7F4F07
S1131B808F4F9F4F16C0882311F096E911C0772319
S1131B9021F09EE8872F762F05C0662371F096E822
S1131BA0862F70E060E02AF09A95660F771F881FF1
S1131BB0DAF7880F9695879597F9089597F99F67AF
S1131BC080E870E060E008959FEF80EC08950024C1
S1131BD00A941616170618060906089500240A948E
S1131BE012161306140605060895092E0394000C14
S1131BF011F4882352F0BB0F40F4BF2B11F460FFA3
S1131C0004C06F5F7F4F8F4F9F4F089557FD9058CB
S1131C10440F551F59F05F3F71F04795880F97FBAC
S1131C20991F61F09F3F79F0879508951216130666
S1131C301406551FF2CF4695F1DF08C01616170695
S1131C401806991FF1CF86957105610508940895CA
S1131C50E894BB2766277727CB0197F908950E945C
S1131C60A10E08F48FEF08950E94470E0C94F50D11
S1131C700E94E70D38F00E94EE0D20F0952311F03C
S1131C800C94DE0D0C94E40D11240C94290E0E9486
S1131C90060E70F3959FC1F3950F50E0551F629F98
S1131CA0F001729FBB27F00DB11D639FAA27F00DB1
S1131CB0B11DAA1F649F6627B00DA11D661F829FD8
S1131CC02227B00DA11D621F739FB00DA11D621FBD
S1131CD0839FA00D611D221F749F3327A00D611DDA
S1131CE0231F849F600D211D822F762F6A2F1124BC
S1131CF09F5750409AF0F1F088234AF0EE0FFF1FEF
S1131D00BB1F661F771F881F91505040A9F79E3F45
S1131D10510580F00C94DE0D0C94290E5F3FE4F322
S1131D20983ED4F3869577956795B795F795E7959B
S1131D309F5FC1F7FE2B880F911D9695879597F9A4
S1131D400895990F0008550FAA0BE0E8FEEF161648
S1131D501706E807F907C0F012161306E407F5079B
S1131D6098F0621B730B840B950B39F40A2661F00F
S1131D70232B242B252B21F408950A2609F4A140B2
S1131D80A6958FEF811D811D0895052E97FB1EF4E6
S1131D9000940E94DC0E57FD07D00E94E40E07FC5D
S1131DA003D04EF40C94DC0E50954095309521955B
S1131DB03F4F4F4F5F4F0895909580957095619573
S1131DC07F4F8F4F9F4F0895A1E21A2EAA1BBB1B72
S1131DD0FD010DC0AA1FBB1FEE1FFF1FA217B307F3
S1131DE0E407F50720F0A21BB30BE40BF50B661F09
S1131DF0771F881F991F1A9469F7609570958095CD
S1131E0090959B01AC01BD01CF010895CF93DF9361
S1131E10EC012B8120FF33C026FF0AC02F7B2B83CC
S1131E208E819F8101969F838E838A8190E029C051
S1131E3022FF0FC0E881F9818081082E000C990BE4
S1131E40009719F420622B831AC03196F983E88332
S1131E500EC0EA85FB85099597FF09C02B81019681
S1131E6011F080E201C080E1822B8B8308C02E81B7
S1131E703F812F5F3F4F3F832E83992702C08FEF0F
S1131E809FEFDF91CF910895A0E0B0E0EAE4FFE096
S1131E900C942112AE014B5F5F4FFA016191719175
S1131EA0AF0180918D0490918E040E94800FE2E036
S1131EB00C943D12A0E0B0E0E0E6FFE00C941F12A9
S1131EC0AE01495F5F4FDA016D917D91AD010BE881
S1131ED014E0F80182819381DC0113962C9113970D
S1131EE0286013962C930E94800FD8011296ED91CE
S1131EF0FC9113972381277F2383E4E00C943B1206
S1131F00ABE0B0E0E6E8FFE00C9411126C017B0159
S1131F108A01FC0117821682838181FFCCC1CE0124
S1131F2001963C01F6019381F70193FD859193FF9E
S1131F3081917F01882309F4BAC1853239F493FD74
S1131F40859193FF81917F01853229F4B60190E058
S1131F500E947711E7CF912C212C312CFFE1F3154E
S1131F60D8F08B3279F038F4803279F08332A1F4EE
S1131F70232D20611DC08D3261F0803369F4232D3F
S1131F80216016C0832D8260382EE32DE4603E2E3E
S1131F902AC0F32DF8601DC037FC2DC020ED280F9A
S1131FA02A3040F08E32B9F436FC81C1232D2064EE
S1131FB0322E19C036FE06C08AE0989E200D1124E8
S1131FC0922E11C0EAE02E9E200D1124222EF32D14
S1131FD0F0623F2E08C08C3621F4832D8068382EA1
S1131FE002C0883641F4F70193FD859193FF8191F6
S1131FF07F018111B3CF982F9F7D9554933028F49E
S11320000C5F1F4F9FE399830DC0833631F08337F4
S113201071F0833509F059C021C0F80180818983AA
S11320200E5F1F4F88248394912C530113C0280101
S1132030F2E04F0E511CF801A080B18036FE03C0BF
S1132040692D70E002C06FEF7FEFC5010E946C1133
S11320504C018201F32DFF773F2E16C0280122E0A8
S1132060420E511CF801A080B18036FE03C0692DD8
S113207070E002C06FEF7FEFC5010E9461114C0157
S1132080F32DF0683F2E820133FC1BC0822D90E0BB
S113209088169906B0F4B60180E290E00E947711A8
S11320A02A94F4CFF50137FC859137FE81915F01C5
S11320B0B60190E00E94771121102A9421E0821A3F
S11320C091088114910471F7E8C0843611F08936BF
S11320D041F5F80137FE07C06081718182819381E7
S11320E00C5F1F4F08C060817181072E000C880BA4
S11320F0990B0E5F1F4FF32DFF763F2E97FF09C0FC
S113210090958095709561957F4F8F4F9F4FF068A4
S11321103F2E2AE030E0A3010E94B311882E8618D6
S113212045C0853731F4232D2F7EB22E2AE030E0CE
S113213025C0932D997FB92E8F36C1F018F48835B8
S113214079F0B5C0803719F0883721F0B0C0E92F95
S1132150E061BE2EB4FE0DC0FB2DF460BF2E09C09D
S113216034FE0AC0292F2660B22E06C028E030E0D3
S113217005C020E130E002C020E132E0F801B7FE02
S113218007C060817181828193810C5F1F4F06C0FB
S11321906081718180E090E00E5F1F4FA3010E9477
S11321A0B311882E8618FB2DFF773F2E36FE0DC007
S11321B0232D2E7FA22E891458F434FE0BC032FC3A
S11321C009C0832D8E7EA82E05C0B82CA32C03C075
S11321D0B82C01C0B92CA4FE0FC0FE01E80DF11DFE
S11321E08081803321F49A2D997EA92E09C0A2FE04
S11321F006C0B394B39404C08A2D867809F0B394CE
S1132200A3FC11C0A0FE06C0B21488F4280C922CC2
S11322109B180EC0B21460F4B60180E290E00E94F4
S11322207711B394F7CFB21418F42B1802C0982C7A
S1132230212CA4FE10C0B60180E390E00E94771127
S1132240A2FE17C0A1FC03C088E790E002C088E5A5
S113225090E0B6010CC08A2D867859F0A1FE02C028
S11322608BE201C080E2A7FC8DE2B60190E00E94FF
S11322707711891438F4B60180E390E00E94771155
S11322809A94F7CF8A94F301E80DF11D8081B60189
S113229090E00E9477118110F5CF222009F442CEFC
S11322A0B60180E290E00E9477112A94F6CFF601FD
S11322B08681978102C08FEF9FEF2B96E2E10C9409
S11322C02D12FC010590615070400110D8F78095E3
S11322D090958E0F9F1F0895FC01615070400190EE
S11322E00110D8F7809590958E0F9F1F08950F9336
S11322F01F93CF93DF93FB01238121FD03C08FEF55
S11323009FEF2CC022FF16C046815781248135815E
S11323104217530744F4A081B1819D012F5F3F4FC1
S1132320318320838C93268137812F5F3F4F3783FE
S1132330268314C08B01EC01FB010084F185E02DA0
S11323400995892BE1F6D80116968D919C911797E2
S1132350019617969C938E931697CE01DF91CF9199
S11323601F910F910895FA01AA27283051F12031C5
S113237081F1E8946F936E7F6E5F7F4F8F4F9F4F15
S1132380AF4FB1E03ED0B4E03CD0670F781F891F57
S11323909A1FA11D680F791F8A1F911DA11D6A0F25
S11323A0711D811D911DA11D20D009F468943F91D8
S11323B02AE0269F11243019305D3193DEF6CF01D7
S11323C00895462F4770405D4193B3E00FD0C9F79D
S11323D0F6CF462F4F70405D4A3318F0495D31FD0A
S11323E04052419302D0A9F7EACFB4E0A69597955D
S11323F0879577956795BA95C9F700976105710533
S113240008959B01AC010A2E06945795479537957C
S11324102795BA95C9F7620F731F841F951FA01DD6
S113242008952F923F924F925F926F927F928F9274
S11324309F92AF92BF92CF92DF92EF92FF920F934F
S11324401F93CF93DF93CDB7DEB7CA1BDB0B0FB659
S1132450F894DEBF0FBECDBF09942A883988488816
S11324605F846E847D848C849B84AA84B984C884AC
S1132470DF80EE80FD800C811B81AA81B981CE0FA3
S1132480D11D0FB6F894DEBF0FBECDBFED01089588
S1072490F894FFCFEA
S11324940000000300000000C70AFF0A0000000057
S11324A400FFFF00010000017D4545390010387C20
S11324B43810007D2111217D6F6E20006F66660047
S11324C45061757365640020202020202000256459
S11324D4003F065B4F666D7D077F6F000100FF01BF
S11324E400FF0000000000000000000003000300DF
S11324F400000404000004000400040004000400B8
S1132504000003040403040003000400040004049E
S11325140404000300000000040004050400040093
S11325240003000004000000040000040403040584
S11325340004000004030400000404000000040474
S11325440404000400000004030004000000030069
S1132554000300030003000300000400000004005F
S1132564000300040000030300050400000003004A
S1132574000000030000000003000005040404003C
S11325840000000400000004040400040403000028
S11325940404040404040304050300000000030009
S11325A40300000005040003000300030403040003
S11325B404000004040400030004040000040403ED
S11325C404030404000400040404000000000300E1
S11325D404000003000400000303000000000400DE
S10F25E4030000040004000004040000D4
S9030000FC
