S00D00004C616231372E73726563A0
S11300000C943E000C9448000C9448000C94480056
S11300100C9448000C9448000C9448000C9448003C
S11300200C9448000C9448000C9448000C9448002C
S11300300C9448000C9448000C9448000C9448001C
S11300400C9448000C9448000C9448000C9448000C
S11300500C9448000C9448000C9448000C944800FC
S11300600C9448000C9448000C9448000C944800EC
S11300700C9448000C9448000C94480011241FBEB2
S1130080CFEFD8E0DEBFCDBF0E945F000C94DE004E
S11300900C94000084B1806B84B985B1806185B90A
S11300A080E58CBD1DBC8CB583608CBD85B115B855
S11300B008958EBD0DB407FEFDCF8EB508950E9440
S11300C04A008FE00E9459002FEF89E698E1215001
S11300D080409040E1F700C0000080E10E94590098
S11300E02FEF83ED90E3215080409040E1F700C072
S11300F000008FE00E94590080E00E94590000E057
S113010010E011C080E00E945900C0E0D0E006C0B9
S1130110802F8295807F0E9459002196C038D10596
S1130120BCF30F5F1F4F0031110564F300E010E0D2
S113013010C080E00E945900C0E0D0E005C080EF0C
S1130140800F0E9459002196C038D105C4F30F5F77
S11301501F4F003111056CF300E010E015C080E082
S11301600E945900C0E0D0E00AC08FE090E0801BFC
S1130170910B8295807F815F0E9459002196C0383F
S1130180D1059CF30F5F1F4F0031110544F300E0CC
S113019010E010C080E00E945900C0E0D0E005C02B
S11301A08FE0801B0E9459002196C038D105C4F30A
S11301B00F5F1F4F003111056CF39ECFF894FFCFF2
S9030000FC
