S01000004C616231362D30332E737265630E
S11300000C943E000C945B000C945B000C945B001D
S11300100C945B000C945B000C945B000C945B00F0
S11300200C945B000C945B000C945B000C945B00E0
S11300300C945B000C945B000C945B000C945B00D0
S11300400C945B000C945B000C945B000C945B00C0
S11300500C944C010C940A010C945B000C945B000E
S11300600C945B000C945B000C945B000C945B00A0
S11300700C945B000C945B000C945B0011241FBE79
S1130080CFEFD8E0DEBFCDBF11E0A0E0B1E0E6E7FE
S1130090FAE002C005900D92A832B107D9F721E029
S11300A0A8E2B1E001C01D92A43CB207E1F70E94AE
S11300B09F010C9439050C940000CF93C82F8A300B
S11300C019F48DE00E945D009FB7907802C09923D7
S11300D029F180912A018823D4F3F894E09129012D
S11300E081E08E0F80932901F0E0E55DFE4FC0832F
S11300F080912A018F5F80932A01809129018038A1
S113010011F410922901E1ECF0E080818062808397
S1130110992339F0789480E090E005C081E090E084
S113012002C080E090E0CF9108958091BD018823C2
S1130130E1F32FB72078F8948091AB013091BD01A1
S113014090E0831B91095AF4E091AB018091BD01C9
S1130150F0E0E81BF109E454FE4F80810AC0E0910D
S1130160AB018091BD01F0E0E81BF109E455FE4FBD
S113017080819091BD0191509093BD01222309F09B
S1130180789490E008951092290110922A01109217
S1130190AB011092BD011092BC0140932801DC0117
S11301A0CB01880F991FAA1FBB1F880F991FAA1F75
S11301B0BB1F9C01AD01220F331F441F551F60E07C
S11301C072E18AE790E00E94EA01BA01A9014F5F57
S11301D05F4F6F4F7F4FDB01CA011AF40196A11DD7
S11301E0B11DB595A7959795879501979093C500EF
S11301F08093C400E1ECF0E088E180838081806832
S11302008083EEEBF1E080E091E09383828391833D
S1130210808308951F920F920FB60F9211242F938B
S11302208F939F93EF93FF9380912A01882329F161
S11302308091290120912A0190E0821B91095AF4AE
S1130240E091290180912A01F0E0E81BF109E555CC
S1130250FE4F90810AC0E091290180912A01F0E0CB
S1130260E81BF109E55DFE4F908180912A018150E0
S113027080932A019093C60005C0E1ECF0E08081F0
S11302808F7D8083FF91EF919F918F912F910F909C
S11302900FBE0F901F9018951F920F920FB60F92DA
S11302A011242F933F934F935F936F937F938F9377
S11302B09F93AF93BF93CF93EF93FF93C091C600E7
S11302C080912801882349F080912A0188232CF009
S11302D060E070E08C2F0E945D008091BD01803150
S11302E020F081E08093BC0118C0CD3009F4CAE04D
S11302F0E091AB0181E08E0F8093AB01F0E0E45517
S1130300FE4FC0838091BD018F5F8093BD018091BA
S1130310AB01803111F41092AB01FF91EF91CF91B9
S1130320BF91AF919F918F917F916F915F914F9109
S11303303F912F910F900FBE0F901F90189540E0A2
S113034060E07BE480E090E00E94C300789480E465
S113035080937C0086E880937A008EE091E00E948E
S11303604102C0E0C11106C0ECE7F0E080818E7F5D
S1130370808305C0ECE7F0E0808181608083EAE758
S1130380F0E080818064808380917A0086FDFCCFD8
S11303908091780090917900C1110DC09F938F9343
S11303A087E191E09F938F930E942B020F900F900F
S11303B00F900F900CC09F938F938FE191E09F93C8
S11303C08F930E942B020F900F900F900F9081E05B
S11303D0C827C8CF052E97FB1EF400940E94010283
S11303E057FD07D00E94090207FC03D04EF40C9479
S11303F0010250954095309521953F4F4F4F5F4FE7
S1130400089590958095709561957F4F8F4F9F4F7C
S11304100895A1E21A2EAA1BBB1BFD010DC0AA1F41
S1130420BB1FEE1FFF1FA217B307E407F50720F059
S1130430A21BB30BE40BF50B661F771F881F991FD4
S11304401A9469F760957095809590959B01AC011D
S1130450BD01CF010895A0E0B0E0E1E3F2E00C9427
S11304601205AE014B5F5F4FFA0161917191AF01CB
S11304708091C0019091C1010E947102E2E00C944C
S11304802E050F931F93CF93DF93E091C001F0915A
S1130490C101238121FF1BC08C01D0E0C0E0F80121
S11304A081918F016091C0017091C101DB011896A7
S11304B0ED91FC911997882331F00995892B79F3F3
S11304C0DFEFCFEFECCF8AE00995892B19F08FEF9E
S11304D09FEF02C08D2F9C2FDF91CF911F910F9121
S11304E00895ABE0B0E0E7E7F2E00C9402056C019C
S11304F07B018A01FC0117821682838181FFCCC1B2
S1130500CE0101963C01F6019381F70193FD85919B
S113051093FF81917F01882309F4BAC1853239F4AC
S113052093FD859193FF81917F01853229F4B60172
S113053090E00E946804E7CF912C212C312CFFE13C
S1130540F315D8F08B3279F038F4803279F08332B5
S1130550A1F4232D20611DC08D3261F0803369F434
S1130560232D216016C0832D8260382EE32DE46094
S11305703E2E2AC0F32DF8601DC037FC2DC020ED9F
S1130580280F2A3040F08E32B9F436FC81C1232D75
S11305902064322E19C036FE06C08AE0989E200DD3
S11305A01124922E11C0EAE02E9E200D1124222E39
S11305B0F32DF0623F2E08C08C3621F4832D806821
S11305C0382E02C0883641F4F70193FD859193FFDC
S11305D081917F018111B3CF982F9F7D95549330E2
S11305E028F40C5F1F4F9FE399830DC0833631F0CD
S11305F0833771F0833509F059C021C0F801808137
S113060089830E5F1F4F88248394912C530113C058
S11306102801F2E04F0E511CF801A080B18036FE93
S113062003C0692D70E002C06FEF7FEFC5010E9427
S11306305D044C018201F32DFF773F2E16C0280183
S113064022E0420E511CF801A080B18036FE03C0A6
S1130650692D70E002C06FEF7FEFC5010E94520464
S11306604C01F32DF0683F2E820133FC1BC0822D18
S113067090E088169906B0F4B60180E290E00E94FA
S113068068042A94F4CFF50137FC859137FE8191F3
S11306905F01B60190E00E94680421102A9421E0D1
S11306A0821A91088114910471F7E8C0843611F01C
S11306B0893641F5F80137FE07C060817181828176
S11306C093810C5F1F4F08C060817181072E000C5D
S11306D0880B990B0E5F1F4FF32DFF763F2E97FF6C
S11306E009C090958095709561957F4F8F4F9F4F6E
S11306F0F0683F2E2AE030E0A3010E94A404882E73
S1130700861845C0853731F4232D2F7EB22E2AE07A
S113071030E025C0932D997FB92E8F36C1F018F49F
S1130720883579F0B5C0803719F0883721F0B0C02A
S1130730E92FE061BE2EB4FE0DC0FB2DF460BF2E88
S113074009C034FE0AC0292F2660B22E06C028E054
S113075030E005C020E130E002C020E132E0F801E1
S1130760B7FE07C060817181828193810C5F1F4F46
S113077006C06081718180E090E00E5F1F4FA3018D
S11307800E94A404882E8618FB2DFF773F2E36FE88
S11307900DC0232D2E7FA22E891458F434FE0BC0D5
S11307A032FC09C0832D8E7EA82E05C0B82CA32C44
S11307B003C0B82C01C0B92CA4FE0FC0FE01E80D83
S11307C0F11D8081803321F49A2D997EA92E09C0D0
S11307D0A2FE06C0B394B39404C08A2D867809F0AF
S11307E0B394A3FC11C0A0FE06C0B21488F4280C74
S11307F0922C9B180EC0B21460F4B60180E290E013
S11308000E946804B394F7CFB21418F42B1802C0F2
S1130810982C212CA4FE10C0B60180E390E00E9425
S11308206804A2FE17C0A1FC03C088E790E002C0E0
S113083088E590E0B6010CC08A2D867859F0A1FEB7
S113084002C08BE201C080E2A7FC8DE2B60190E019
S11308500E946804891438F4B60180E390E00E9491
S113086068049A94F7CF8A94F301E80DF11D80810E
S1130870B60190E00E9468048110F5CF222009F4AB
S113088042CEB60180E290E00E9468042A94F6CF3A
S1130890F6018681978102C08FEF9FEF2B96E2E1EC
S11308A00C941E05FC010590615070400110D8F7AE
S11308B0809590958E0F9F1F0895FC0161507040A4
S11308C001900110D8F7809590958E0F9F1F089581
S11308D00F931F93CF93DF93FB01238121FD03C06B
S11308E08FEF9FEF2CC022FF16C0468157812481D1
S11308F035814217530744F4A081B1819D012F5FD4
S11309003F4F318320838C93268137812F5F3F4F64
S11309103783268314C08B01EC01FB010084F1852D
S1130920E02D0995892BE1F6D80116968D919C91BD
S11309301797019617969C938E931697CE01DF9185
S1130940CF911F910F910895FA01AA27283051F1F0
S1130950203181F1E8946F936E7F6E5F7F4F8F4FEC
S11309609F4FAF4FB1E03ED0B4E03CD0670F781F4B
S1130970891F9A1FA11D680F791F8A1F911DA11D30
S11309806A0F711D811D911DA11D20D009F4689469
S11309903F912AE0269F11243019305D3193DEF611
S11309A0CF010895462F4770405D4193B3E00FD0C7
S11309B0C9F7F6CF462F4F70405D4A3318F0495DB2
S11309C031FD4052419302D0A9F7EACFB4E0A69595
S11309D09795879577956795BA95C9F700976105B7
S11309E0710508959B01AC010A2E0694579547950D
S11309F037952795BA95C9F7620F731F841F951F02
S1130A00A01D08952F923F924F925F926F927F9212
S1130A108F929F92AF92BF92CF92DF92EF92FF920A
S1130A200F931F93CF93DF93CDB7DEB7CA1BDB0BB6
S1130A300FB6F894DEBF0FBECDBF09942A8839885B
S1130A4048885F846E847D848C849B84AA84B98462
S1130A50C884DF80EE80FD800C811B81AA81B9816E
S1130A60CE0FD11D0FB6F894DEBF0FBECDBFED0182
S1090A700895F894FFCF85
S1130A7600000003000000005D00950000004144F2
S1130A8643205465737400583A2025346420005971
S10B0A963A202534640A000033
S9030000FC
